:020000007E2C54
:10000800FF00030E8301DC000A08DF008A01700884
:10001800A5007108A4007208A3007308A200740860
:10002800A1000408A6000B08F000F00CF013013042
:100038007005F1007108013A031D2328C823053013
:1000480083120313F1000C08F0007108031930281B
:10005800F00CF013FF3E2A2801307005F1007108FA
:10006800013A031D382826240B0883120313F000D5
:10007800F00CF013F00CF01301307005F10071086A
:10008800013A031D4828FE23831203130C08F000CD
:10009800F00CF013F00CF013F00CF01301307005B5
:1000A800F1007108013A031D5A28542483120313DE
:1000B8002508F0002408F1002308F2002208F300C4
:1000C8002108F400260884005F088A005C0E83007B
:0600D800FF0E7F0E09007F
:1000DE0083120313FB01FA01F901F801A001730D5C
:1000EE00F80D7408F8027508031C750FF9027608EE
:1000FE00031C760FFA027708031C770FFB02000130
:10010E00031C0130A002F30D0730FC00730DF80D37
:10011E00F90DFA0DFB0DA00D7408731CA828F8023A
:10012E007508031C750FF9027608031C760FFA0288
:10013E007708031C770FFB020001031C0130A0029D
:10014E00B928F80775080318750FF907760803180C
:10015E00760FFA0777080318770FFB0700010318CD
:10016E000130A007F30DFC0B8D28720DF80DF90D63
:10017E00FA0DFB0DA00D7408731CD728F802750834
:10018E00031C750FF9027608031C760FFA02770826
:10019E00031C770FFB020001031C0130A002E828AC
:1001AE00F80775080318750FF90776080318760F08
:1001BE00FA0777080318770FFB07000103180130C1
:1001CE00A007F20D0730FC00720DF80DF90DFA0DB7
:1001DE00FB0DA00D7408721C0629F8027508031C8D
:1001EE00750FF9027608031C760FFA027708031CC6
:1001FE00770FFB020001031C0130A0021729F8073C
:10020E0075080318750FF90776080318760FFA07A5
:10021E0077080318770FFB07000103180130A007BA
:10022E00F20DFC0BEB28710DF80DF90DFA0DFB0D0F
:10023E00A00D7408721C3529F8027508031C750F81
:10024E00F9027608031C760FFA027708031C770F63
:10025E00FB020001031C0130A0024629F8077508B5
:10026E000318750FF90776080318760FFA07770843
:10027E000318770FFB07000103180130A007F10DDB
:10028E000730FC00710DF80DF90DFA0DFB0DA00DE8
:10029E007408711C6429F8027508031C750FF902A5
:1002AE007608031C760FFA027708031C770FFB0201
:1002BE000001031C0130A0027529F8077508031808
:1002CE00750FF90776080318760FFA0777080318E3
:1002DE00770FFB07000103180130A007F10DFC0B8F
:1002EE004929700DF80DF90DFA0DFB0DA00D7408CE
:1002FE00711C9329F8027508031C750FF902760814
:10030E00031C760FFA027708031C770FFB0200011D
:10031E00031C0130A002A429F80775080318750FF5
:10032E00F90776080318760FFA0777080318770F80
:10033E00FB07000103180130A007F00D0730FC0089
:10034E00700DF80DF90DFA0DFB0DA00D7408701C53
:10035E00C229F8027508031C750FF9027608031CF2
:10036E00760FFA027708031C770FFB020001031CBD
:10037E000130A002D329F80775080318750FF90785
:10038E0076080318760FFA0777080318770FFB071E
:10039E00000103180130A007F00DFC0BA7297018FF
:1003AE00E6297408F80775080318750FF90776081B
:1003BE000318760FFA0777080318770FFB07080064
:1003CE00831603131808F100F10CF1137118F029BC
:0A03DE00E72983126E089900080059
:1003E80083120313EE01EF0100306F02031DFE2993
:1003F8000A306E0203180B2A6E088316350784002C
:10040800203080008312EE0A0319EF0AF8296E08DB
:10041800831635078400800101308312EE02031C25
:10042800EF036E0883163507B6000A30F400F501AD
:10043800F601F7013108F0003208F1003308F20044
:100448003408F3006F207808F0007908F1007A0882
:10045800F2007B08F3003030F0078316360884007A
:10046800700880000A30F400F501F601F701310840
:10047800F0003208F1003308F2003408F3006F206E
:1004880070088316B1007108B2007208B3007308CF
:10049800B4000030F4007306031D5C2A7408720669
:1004A800031D5C2A74087106031D5C2A7008003A53
:1004B800031D5F2A652A01308312EE02031CEF0335
:0404C800152A0800E9
:1004CC0083120313E6016608650784000008003AEE
:1004DC000319782A6608650784000008EE00E721F6
:0604EC00E60A692A08007F
:1004F20083120313EC01ED0165088316AD0083122C
:1005020066088316AE00831267088316AF00831253
:1005120068088316B000803083126806F0008030CD
:100522007002031D9E2A00306702031D9E2A0030BE
:100532006602031D9E2A003065020318C72A013095
:10054200EC000030ED00F401F501F601F701650859
:10055200F0006608F1006708F2006808F30074080A
:100562008316AD007508AE007608AF007708B000BC
:100572007008AD027108031C710FAE027208031CF1
:10058200720FAF027308031C730FB00283162D089B
:10059200B1002E08B2002F08B3003008B400831255
:1005A20069088316B500F4210B3083120313EA00A5
:1005B2000030EB006B08003C031DE12A6A08003C96
:1005C2000318FC2A6A086907F20001306A02F00087
:1005D2000030031C013E6B02F100700869078400C1
:1005E2000008F00072088400700880000130EA02FE
:1005F200031CEB03DB2A69088400203080006C08AE
:100602006D0403191A2BEA01EB016A0869078400D9
:100612000008203A031D112BEA0A0319EB0A062BE4
:100622000130EA02031CEB036A08690784002D30DB
:04063200800008003C
:1006360019308316031399001815EF3098058312A5
:080646009817831698160800AE
:0E064E00831203135E088A005D088200080014
:10065C00C730831203139F056108F000F00D701072
:10066C00F00D7010F00D701070089F040630FD0036
:10067C00FD0B3E2B00001F151F08F000F00CF013B3
:10068C00F00CF01301307005F1007108013A031DF4
:0C069C00502B422B83161E08F0000800B3
:1006A800831203136108E5006208E6006308E700A7
:1006B8006408E800A030E9007922A030E50066224D
:0206C800080028
:1006CA000E30831603139F009F17803083129F00FA
:0406DA001F140800E1
:0A06DE00013083120313AD00080081
:1006E800831203133108F0003208F1003308F200D6
:1006F8003408F300F00A0319F10A0319F20A03197E
:10070800F30A7008B1007108B2007208B3007308E8
:04071800B400080021
:0E071C00831203135E088A005D088200080045
:10072A0065231B2338308312E5006622E1012E235C
:10073A0070088312E0005130E50066226008E1008B
:10074A00E201E301E40154235930E5006622033053
:10075A00FB008A30FC005530FD00FD0BB22BFC0B70
:0E076A00B22BFB0BB22B000000009B2B0800F3
:1007780027238A110A128000840ADD0A0319DE0A77
:08078800F003031DBC2B080067
:10079000FD308B058B10831203132E08F1002F08F8
:1007A000F2003008F3003108F4000030F000740665
:1007B000031DE42B70087306031DE42B70087206FA
:1007C000031DE42B7108003A0319ED2B2E08DD0000
:0C07D0002F08DE008E238A110A12080098
:1007DC000630831603139F0085018601870188016B
:1007EC00890183128501860187018801890108002E
:1007FC000630831203138100FB308B050B11270885
:10080C00F1002808F2002908F3002A08F40000304F
:10081C00F0007406031D1C2C70087306031D1C2CA1
:10082C0070087206031D1C2C7108003A0319252C44
:10083C002708DD002808DE008E238A110A12080022
:10084C00831203131A088316B70083122A08F100C7
:10085C002B08F2002C08F3002D08F4000030F000F7
:10086C007406031D432C70087306031D432C70087B
:10087C007206031D432C7108003A0319532C2C08E3
:10088C008400831637088000840A83122A08DD004E
:0C089C002B08DE008E238A110A120800CF
:1008A800F730831203138C053508F1003608F2007F
:1008B8003708F3003808F4000030F0007406031D10
:1008C8006F2C70087306031D6F2C70087206031DC9
:1008D8006F2C7108003A03197D2C3708840013081F
:1008E8008000840A3508DD003608DE008E238A1170
:0408F8000A120800D8
:0A08FC00BE24EE239523812C822CEC
:10097C0027308400353083120313F0008830DD00FB
:08098C000430DE00BC2308006A
:0609100000340034003445
:060916000034003400343F
:02091C000034A5
:06091E0000340034003437
:080924000034003400340034FB
:06092C0000340034003429
:100932002D342D342D342034413444344334203486
:100942004D346F346E34693474346F3472346934B4
:100952006E34673420342D342D342D340D340A3462
:0209620000345F
:10096400563461346C34753465343A34203400348C
:060974000D340A340034CA
:02400E004A2F37
:00000001FF
