:02000000022BD1
:10000800FF00030E8301AE000A08AF008A017008E2
:10001800A1007108A0000B08F100F10CF113711C8C
:1000280016288C220B0883120313F100F10CF1132C
:10003800F10CF113711C2128B1228312031321083A
:10004800F0002008F1002F088A002E0E8300FF0E12
:040058007F0E09000E
:10005C0083120313BA0179283908F0000508BA0095
:10006C00700803193D28BA0CBA13FF3E372801302B
:10007C00BA058E283908F0000608BA007008031972
:10008C004B28BA0CBA13FF3E45280130BA058E280E
:10009C003908F0000708BA00700803195928BA0C7F
:1000AC00BA13FF3E53280130BA058E283908F000E8
:1000BC000808BA00700803196728BA0CBA13FF3E77
:1000CC0061280130BA058E283908F0000908BA00F9
:1000DC00700803197528BA0CBA13FF3E6F2801304B
:1000EC00BA058E288E283808003A031932283808A9
:1000FC00013A031940283808023A03194E283808E7
:10010C00033A03195C283808043A03196A2878283A
:06011C003A08F0000800A3
:100122003A29831203133A08013A031DA628390813
:10013200F1000130F00071080319A328F00D7010CE
:10014200FF3E9D2870088504B4283908F10001306B
:10015200F00071080319B128F00D7010FF3EAB28B2
:10016200F0097008850551293A08013A031DC7288C
:100172003908F1000130F00071080319C428F00DAC
:100182007010FF3EBE2870088604D5283908F10099
:100192000130F00071080319D228F00D7010FF3EF3
:1001A200CC28F0097008860551293A08013A031D46
:1001B200E8283908F1000130F00071080319E52838
:1001C200F00D7010FF3EDF2870088704F62839080A
:1001D200F1000130F00071080319F328F00D7010DE
:1001E200FF3EED28F0097008870551293A08013AC7
:1001F200031D09293908F1000130F00071080319C3
:100202000629F00D7010FF3E002970088804172996
:100212003908F1000130F000710803191429F00DBA
:100222007010FF3E0E29F0097008880551293A081E
:10023200013A031D2A293908F1000130F000710842
:1002420003192729F00D7010FF3E21297008890437
:1002520038293908F1000130F000710803193529F5
:10026200F00D7010FF3E2F29F00970088905512901
:100272005129831203133808003A031992283808C7
:10028200013A0319B5283808023A0319D628380862
:10029200033A0319F7283808043A031918293929A7
:0202A200080052
:1002A400831203133608B8003708B9002E207008EB
:1002B400013A031D64293608B8003708B900BA01A9
:1002C40091206B293608B8003708B9000130BA000C
:0402D400912008006D
:0E02D800831203132D088A002C0882000800F0
:1002E6002F2A831203133508003A031D8A2934087E
:1002F600F1000130F000710803198529F00D701026
:10030600FF3E7F29F0097008831685059929831217
:100316003408F1000130F000710803199629F00D38
:100326007010FF3E9029700883168504462A8312B2
:100336003508003A031DAF293408F1000130F000FA
:1003460071080319AA29F00D7010FF3EA429F009BF
:10035600700883168605BE2983123408F100013021
:10036600F00071080319BB29F00D7010FF3EB52986
:10037600700883168604462A83123508003A031D40
:10038600D4293408F1000130F00071080319CF298F
:10039600F00D7010FF3EC929F00970088316870515
:1003A600E32983123408F1000130F00071080319C3
:1003B600E029F00D7010FF3EDA29700883168704D5
:1003C600462A83123508003A031DF9293408F1003C
:1003D6000130F00071080319F429F00D7010FF3E8A
:1003E600EE29F009700883168805082A8312340856
:1003F600F1000130F00071080319052AF00D7010A4
:10040600FF3EFF29700883168804462A83123508A2
:10041600003A031D1E2A3408F1000130F00071086D
:100426000319192AF00D7010FF3E132AF0097008FF
:10043600831689052D2A83123408F1000130F00055
:10044600710803192A2AF00D7010FF3E242A70083D
:1004560083168904462A462A831203133308003A70
:10046600031974293308013A03199A293308023A01
:100476000319BF293308033A0319E4293308043A58
:080486000319092A2E2A0800BF
:0E048E00831203132D088A002C088200080038
:10049C00831203132508013EF00000300318013EBF
:1004AC002607F1007008A5007108A6002708013E78
:1004BC00F00000300318013E2807F1007008A70077
:1004CC007108A80000302602031D6E2A2830250270
:1004DC00031C772A0130B6000130B7005221A50168
:1004EC00A60100302802031D7D2A14302702031CAC
:1004FC00862A0130B6000230B7005221A701A801AC
:02050C000800E5
:0A050E008312031330088100080077
:10051800831203132208F1002308F2002408F300D1
:100528002508F4000030F0007406031DA52A7008A1
:100538007306031DA52A70087206031DA52A7108F3
:10054800003A0319AE2A2208AC002308AD006C213A
:0A0558008A110A12FD308B0508001D
:10056200831203132908F1002A08F2002B08F30072
:100572002C08F4000030F0007406031DCA2A70082B
:100582007306031DCA2A70087206031DCA2A71085F
:10059200003A0319D32A2908AC002A08AD006C21BD
:0A05A2008A110A12FB308B050800D5
:1005AC00DF30831603138105F7308105F8308105A0
:0A05BC00073081048B168B1708002E
:1005C600831203133008A9003108AA003208AB00D1
:0405D60033080800DE
:1005DA00831203133008B3003108B400B501732144
:0205EA00080007
:1005EC0047228A110A128000840AAC0A0319AD0A48
:0805FC00F003031DF62A0800BC
:100604003023013083120313B0000130B100ED2216
:10061400013083120313B0000230B100ED22D62260
:1006240006308312B00087224E30B0000230B10091
:0C0634000030B2000030E3221E2B1F2B10
:10066000223084000A3083120313F0002530AC00DE
:080670000330AD00F622080082
:06064A000034003400340E
:04065000003400343E
:04065400003400343A
:0606580000340034003400
:02400E004A2F37
:00000001FF
