:02000000292BAA
:10000800FF00030E8301AD000A08AE008A017008E4
:10001800A2007108A1007208A0000B08F100F10C01
:10002800F113711C1828B6220B0883120313F10070
:10003800F10CF113F10CF113711C2328DB2283124C
:1000480003132208F0002108F1002008F2002E080E
:0C0058008A002D0E8300FF0E7F0E0900B1
:1000640083120313B7017D283608F0000508B70092
:10007400700803194128B70CB713FF3E3B28013021
:10008400B70592283608F0000608B700700803196F
:100094004F28B70CB713FF3E49280130B705922803
:1000A4003608F0000708B700700803195D28B70C7C
:1000B400B713FF3E57280130B70592283608F000E1
:1000C4000808B700700803196B28B70CB713FF3E74
:1000D40065280130B70592283608F0000908B700F2
:1000E400700803197928B70CB713FF3E7328013041
:1000F400B705922892283508003A0319362835089E
:10010400013A031944283508023A031952283508DC
:10011400033A031960283508043A03196E287C2829
:060124003708F00008009E
:0E012A00831203132C088A002B0882000800A1
:10013800013083120313B500B60132207008003A6B
:0A014800031DA8280130A4000800E0
:10015200FB308316031387057C3092000C30831228
:0801620097000630920008002E
:10016A00831203133208F000F00CF013F00CF013B2
:10017A0070089500CF30970503303205F2007208F7
:10018A00F000F00D7010F00D7010F00D7010F00D01
:08019A007010700897040800C2
:0E01A200831203132C088A002B088200080029
:1001B0009429831203133408003A031DEF283308EF
:1001C000F1000130F00071080319EA28F00D7010F9
:1001D000FF3EE428F009700883168505FE28831287
:1001E0003308F1000130F00071080319FB28F00D0D
:1001F0007010FF3EF528700883168504AB29831222
:100200003408003A031D14293308F1000130F000CE
:10021000710803190F29F00D7010FF3E0929F0092C
:10022000700883168605232983123308F1000130F4
:10023000F000710803192029F00D7010FF3E1A29F3
:10024000700883168604AB2983123408003A031D14
:1002500039293308F1000130F000710803193429FD
:10026000F00D7010FF3E2E29F009700883168705E7
:10027000482983123308F1000130F0007108031996
:100280004529F00D7010FF3E3F2970088316870442
:10029000AB2983123408003A031D5E293308F100AC
:1002A0000130F000710803195929F00D7010FF3E5C
:1002B0005329F0097008831688056D2983123308C5
:1002C000F1000130F000710803196A29F00D701077
:1002D000FF3E6429700883168804AB298312340812
:1002E000003A031D83293308F1000130F000710842
:1002F00003197E29F00D7010FF3E7829F00970086F
:1003000083168905922983123308F1000130F00029
:10031000710803198F29F00D7010FF3E89297008AC
:1003200083168904AB29AB29831203133208003AE0
:100330000319D9283208013A0319FF283208023A72
:10034000031924293208033A031949293208043AC7
:0803500003196E29932908002E
:10035800552A831203133408013A031DC1293308AF
:10036800F1000130F00071080319BE29F00D70107A
:10037800FF3EB82970088504CF293308F100013001
:10038800F00071080319CC29F00D7010FF3EC62942
:10039800F009700885056C2A3408013A031DE22922
:1003A8003308F1000130F00071080319DF29F00D5E
:1003B8007010FF3ED92970088604F0293308F1002F
:1003C8000130F00071080319ED29F00D7010FF3E9F
:1003D800E729F009700886056C2A3408013A031DDC
:1003E800032A3308F1000130F00071080319002ACC
:1003F800F00D7010FF3EFA2970088704112A33089F
:10040800F1000130F000710803190E2AF00D701088
:10041800FF3E082AF009700887056C2A3408013A5B
:10042800031D242A3308F1000130F0007108031974
:10043800212AF00D7010FF3E1B2A70088804322A0A
:100448003308F1000130F000710803192F2AF00D6C
:100458007010FF3E292AF009700888056C2A3408B4
:10046800013A031D452A3308F1000130F0007108F4
:100478000319422AF00D7010FF3E3C2A70088904C7
:10048800532A3308F1000130F00071080319502A8B
:10049800F00D7010FF3E4A2AF009700889056C2A91
:1004A8006C2A831203133208003A0319AD29320863
:1004B800013A0319D0293208023A0319F1293208FE
:1004C800033A0319122A3208043A0319332A542A20
:0204D80008001A
:1004DA00831203132F08013A031D762A8316011784
:0A04EA00792A8316BF30810508004F
:1004F400013083120313B200B3010130B400D820D9
:020504000800ED
:060506000B168B17080024
:10050C00992A7D3083120313B200B520AB2AFA303E
:10051C00B200B520AB2A7730B200B520AB2AF2304E
:10052C00B200B520AB2A831203132F08003A03192B
:10053C00872A2F08013A03198D2A2F08023A03192A
:0C054C00912A2F08033A0319952A080091
:10055800831203132F08A8003008A9003108AA0045
:04056800320808004D
:10056C00831203132808F1002908F2002A08F3006B
:10057C002B08F4000030F0007406031DCF2A70081D
:10058C007306031DCF2A70087206031DCF2A71084B
:10059C00003A0319D82A2808AB002908AC0095208A
:0A05AC008A110A12FD308B050800C9
:1005B600831203132508F1002608F2002708F3002A
:1005C6002808F4000030F0007406031DF42A7008B1
:1005D6007306031DF42A70087206031DF42A7108B7
:1005E600003A0319FD2A2508AB002608AC00952021
:0A05F6008A110A12FB308B05080081
:10060000A9200330B200B301B401D8200330831213
:100610000313B2000130B300B401D82003308312B9
:100620000313B200B3010130B400AC210330B200B7
:0A0630000130B300B401AC21080052
:10063A00D1208A110A128000840AAB0A0319AC0A73
:08064A00F003031D1D2B080045
:100652005E2300237A2283120313AF016D229C30A2
:100662008312AF000030B0000030B1000030AC2285
:1006720083222308AF0086222408013A031D4E2B51
:10068200A401230AF0007008A3002308033C031806
:0E0692004B2BA3012308AF0086223D2B4F2BDC
:1006BC0023308400083083120313F0005530AB0054
:0806CC000330AC001D230800FF
:0206AA0000341A
:0206AC00003418
:0606AE00003400340034AA
:0606B400003400340034A4
:02400E004A2F37
:00000001FF
