:020000000328D3
:1000060083160317880189010330860003138801CC
:1000160081130330950083128801061832280330B5
:1000260088000330FB008A30FC005530FD00FD0BD4
:100036001A28FC0B1A28FB0B1A280000000088015E
:100046000330FB008A30FC005530FD00FD0B2928EB
:10005600FC0B2928FB0B29280000000055288618D0
:100066005428033088000730FB005830FC00593014
:10007600FD00FD0B3C28FC0B3C28FB0B3C2800003C
:10008600000088010730FB005830FC005930FD00A5
:10009600FD0B4B28FC0B4B28FB0B4B2800000000EC
:0800A600552888011028562896
:04400E00F22F000786
:00000001FF
