:02000000452891
:1000060083120313061486100330FB000830FC002D
:100016007730FD00FD0B0D28FC0B0D28FB0B0D2882
:10002600061086140330FB000830FC007730FD0014
:0E003600FD0B1B28FC0B1B28FB0B1B280800D6
:1000440083120313061486100630FB001330FC00E1
:10005400AD30FD00FD0B2C28FC0B2C28FB0B2C28B1
:1000640000000000061086140630FB001330FC006C
:10007400AD30FD00FD0B3C28FC0B3C28FB0B3C2861
:060084000000000008006E
:10008A00831603138601FF30880083128601081C39
:10009A00502803205628881C542822205628061047
:0600AA0086104C285728C7
:02400E004A2F37
:00000001FF
