:02000000C52910
:10000600BF28831203132608003A031D1A28250861
:10001600F1000130F000710803191528F00D701079
:10002600FF3E0F28F00970088316850529288312DC
:100036002508F1000130F000710803192628F00D9B
:100046007010FF3E2028700883168504D628831278
:100056002608003A031D3F282508F1000130F0006C
:10006600710803193A28F00D7010FF3E3428F00984
:100076007008831686054E2883122508F100013084
:10008600F000710803194B28F00D7010FF3E45284B
:10009600700883168604D62883122608003A031DA4
:1000A60064282508F1000130F000710803195F2863
:1000B600F00D7010FF3E5928F00970088316870569
:1000C600732883122508F1000130F0007108031926
:1000D6007028F00D7010FF3E6A287008831687049A
:1000E600D62883122608003A031D89282508F10020
:1000F6000130F000710803198428F00D7010FF3EDE
:100106007E28F0097008831688059828831225082A
:10011600F1000130F000710803199528F00D7010F8
:10012600FF3E8F28700883168804D6288312260877
:10013600003A031DAE282508F1000130F0007108D1
:100146000319A928F00D7010FF3EA328F0097008C6
:1001560083168905BD2883122508F1000130F000B9
:1001660071080319BA28F00D7010FF3EB428700804
:1001760083168904D628D628831203132408003A46
:10018600031904282408013A03192A282408023AE4
:1001960003194F282408033A031974282408043A3B
:0801A60003199928BE28080086
:1001AE008029831203132608013A031DEC28250823
:1001BE00F1000130F00071080319E928F00D7010FC
:1001CE00FF3EE32870088504FA282508F100013067
:1001DE00F00071080319F728F00D7010FF3EF1289A
:1001EE00F0097008850597292608013A031D0D2987
:1001FE002508F1000130F000710803190A29F00DED
:10020E007010FF3E0429700886041B292508F10092
:10021E000130F000710803191829F00D7010FF3E1F
:10022E001229F0097008860597292608013A031D40
:10023E002E292508F1000130F000710803192B2931
:10024E00F00D7010FF3E2529700887043C29250803
:10025E00F1000130F000710803193929F00D70100A
:10026E00FF3E3329F0097008870597292608013AC1
:10027E00031D4F292508F1000130F0007108031904
:10028E004C29F00D7010FF3E4629700888045D2938
:10029E002508F1000130F000710803195A29F00DFC
:1002AE007010FF3E5429F00970088805972926081A
:1002BE00013A031D70292508F1000130F000710884
:1002CE0003196D29F00D7010FF3E6729700889041F
:1002DE007E292508F1000130F000710803197B29F1
:1002EE00F00D7010FF3E7529F009700889059729E9
:1002FE009729831203132408003A0319D8282408D7
:10030E00013A0319FB282408023A03191C29240870
:10031E00033A03193D292408043A03195E297F295B
:02032E000800C5
:10033000831203132208A4002308A5000130A6009D
:04034000D7200800BA
:10034400831203132208A4002308A500A601032096
:0203540008009F
:10035600831203132208A4002308A500A601D720B0
:0203660008008D
:1003680083120313F101F201C3307202031DBE2987
:10037800503071020318C429F10A0319F20AB82986
:0203880008006B
:10038A00013083120313A200A301A22101308312B8
:10039A000313A200A3019821B4210130A200A301F2
:0803AA00AB21B421CB29D829B5
:02400E004A2F37
:00000001FF
