:020000002429B1
:10000800FF00030E8301A5000A08A4008A017008F6
:10001800A1007108A0000B08F100F10CF113F10C1C
:10002800F113711C2828A20A0319A30A003023021D
:10003800031D20283D302202031C26280130860695
:10004800A201A301FB308B050B08F100F10CF113A1
:10005800711C322802308606FD308B052108F0001D
:100068002008F10024088A00250E8300FF0E7F0E69
:0200780009007D
:0E007A008312031327088A002608820008005C
:10008800831203132A08013A031D6F2828082A3E01
:10009800F00001300318013EF1007008A600710855
:1000A800A7003D208A110A12F2002908F000013049
:1000B800F100700803196428F10D7110FF3E5E28E5
:1000C800720884000008F0007108F00472088400C7
:1000D80070088000952828082A3EF000013003188F
:1000E800013EF1007008A6007108A7003D208A11A2
:1000F8000A12F2002908F1000130F0007108031912
:100108008928F00D7010FF3E83287009F1007208ED
:1001180084000008F0007108F00572088400700877
:04012800800008004B
:10012C00831203132A08013A031DC12828082F3E05
:10013C00F00001300318013EF1007008A6007108B0
:10014C00A7003D208A110A12F2002908F0000130A4
:10015C00F10070080319B628F10D7110FF3EB0289C
:10016C00720884000008F0007108F0047208840022
:10017C0070088000E72828082F3EF0000130031893
:10018C00013EF1007008A6007108A7003D208A11FD
:10019C000A12F2002908F1000130F000710803196D
:1001AC00DB28F00D7010FF3ED5287009F1007208A5
:1001BC0084000008F0007108F005720884007008D3
:0401CC0080000800A7
:1001D000013083120313A800A901AA01962001305F
:1001E000A800A9010130AA0044200630FB0013300A
:1001F000FC00AD30FD00FD0BFB28FC0BFB28FB0BCE
:10020000FB28000000000130A800A901AA01442039
:100210000630FB001330FC00AD30FD00FD0B0E2955
:10022000FC0B0E29FB0B0E2900000000EF28080034
:100230003D208A110A128000840AA60A0319A70A1F
:08024000F003031D182908005A
:0C02480083120313A201A301E82029295E
:0A0254002F342F342F342F342F34B1
:0A025E002F342F342F342F342F34A7
:02400E004A2F37
:00000001FF
