:020000008F2A45
:10000800FF00030E8301B6000A08B7008A017008D2
:10001800A1007108A0000408A2000B08F000F00C71
:10002800F01301307005F1007108013A031D1D2815
:10003800BF21053083120313F1000C08F00071088A
:1000480003192A28F00CF013FF3E2428013070050C
:10005800F1007108013A031D322837220B08831278
:100068000313F000F00CF013F00CF01301307005DE
:10007800F1007108013A031D42280F22831203136D
:100088000C08F000F00CF013F00CF013F00CF01367
:1000980001307005F1007108013A031D5428E5216B
:1000A800831203132108F0002008F10022088400BD
:0E00B80037088A00360E8300FF0E7F0E090007
:1000C600831203134008930083161408F0000130CE
:1000D6007005F1007108003A031D72286728831223
:0600E6001308F000080001
:1000EC003229831203134208003A031D8D2841085C
:1000FC00F1000130F000710803198828F00D701020
:10010C00FF3E8228F0097008831685059C2883120F
:10011C004108F1000130F000710803199928F00D25
:10012C007010FF3E932870088316850449298312AA
:10013C004208003A031DB2284108F1000130F000DA
:10014C0071080319AD28F00D7010FF3EA728F009B7
:10015C00700883168605C12883124108F10001300E
:10016C00F00071080319BE28F00D7010FF3EB8287E
:10017C00700883168604492983124208003A031D2D
:10018C00D7284108F1000130F00071080319D2287A
:10019C00F00D7010FF3ECC28F0097008831687050F
:1001AC00E62883124108F1000130F00071080319B0
:1001BC00E328F00D7010FF3EDD28700883168704CD
:1001CC00492983124208003A031DFC284108F1001A
:1001DC000130F00071080319F728F00D7010FF3E84
:1001EC00F128F0097008831688050B298312410841
:1001FC00F1000130F000710803190829F00D70109E
:10020C00FF3E02297008831688044929831242088C
:10021C00003A031D21294108F1000130F00071085A
:10022C0003191C29F00D7010FF3E1629F0097008F7
:10023C0083168905302983124108F1000130F00042
:10024C00710803192D29F00D7010FF3E2729700835
:10025C008316890449294929831203134008003A5B
:10026C00031977284008013A03199D284008023ADF
:10027C000319C2284008033A0319E7284008043A36
:08028C0003190C2931290800B7
:0E0294008312031335088A0034088200080024
:1002A200023083120313C0000330C100C201762062
:1002B200023083120313C0000430C1000130C200B7
:1002C2007620023083120313C0000530C100C20140
:1002D2007620BF30831603139405EF308312940502
:1002E200F0301405F00001307004940094160800F8
:0E02F2008312031335088A00340882000800C6
:0A030000013083120313AC00080063
:10030A0083120313BF013E083F02031894293F08D2
:10031A003D0784000008C0006320BF0A882908003E
:10032A00831203133008F0003108F1003208F2009A
:10033A003308F300F00A0319F10A0319F20A031940
:10034A00F30A7008B0007108B1007208B2007308AD
:04035A00B3000800E4
:10035E000630831603139F008501860187018801ED
:10036E0089018312850186018701880189010800B0
:10037E00FD308B058B10831203132D08F1002E0810
:10038E00F2002F08F3003008F4000030F00074067D
:10039E00031DDB2970087306031DDB297008720626
:1003AE00031DDB297108003A0319E4292D08B40056
:0C03BE002E08B5004A218A110A1208001E
:1003CA00F730831203138C052308F1002408F20086
:1003DA002508F3002608F4000030F0007406031D17
:1003EA00002A70087306031D002A70087206031D8E
:1003FA00002A7108003A03190E2A250884001308F6
:10040A008000840A2308B4002408B5004A218A110E
:04041A000A120800BA
:10041E000630831203138100FB308B050B11260867
:10042E00F1002708F2002808F3002908F400003034
:10043E00F0007406031D2D2A70087306031D2D2A65
:10044E0070087206031D2D2A7108003A0319362A08
:10045E002608B4002708B5004A218A110A1208009E
:10046E00831203131A08C3002908F1002A08F200A8
:10047E002B08F3002C08F4000030F0007406031D66
:10048E00522A70087306031D522A70087206031D45
:10049E00522A7108003A0319602A2B088400430877
:1004AE008000840A2908B4002A08B5004A218A115E
:0404BE000A12080016
:1004C200103083120313B8002030B9003030BA0064
:1004D2004030BB005030BC0051213830BD000530E7
:1004E200BE0085210630FB001330FC00AD30FD005C
:1004F200FD0B792AFC0B792AFB0B792A00000000FC
:040502006E2A080055
:1005060079218A110A128000840AB40A0319B50AED
:08051600F003031D832A080015
:0A051E00AA22AF216122922A932A3B
:1005540023308400113083120313F0009930B40067
:080564000230B50083220800FB
:0605320000340034003427
:0605380000340034003421
:06053E000034003400341B
:02054400003481
:0605460000340034003413
:08054C000034003400340034D7
:02400E004A2F37
:00000001FF
