:02000000BD2A17
:10000800FF00030E8301A9000A08AA008A017008EC
:10001800A1007108A0000B08F000F00CF013F00C20
:10002800F01301307005F1007108013A031D2A2808
:10003800FB308B0522082304240403192A282208EC
:10004800A7002308A8008A228A110A128312031320
:100058002108F0002008F1002A088A00290E8300F0
:06006800FF0E7F0E0900EF
:10006E00E028831203133508013A031D4C28340887
:10007E00F1000130F000710803194928F00D7010DD
:10008E00FF3E4328700885045A283408F1000130D9
:10009E00F000710803195728F00D7010FF3E51281B
:1000AE00F00970088505F7283508013A031D6D28FB
:1000BE003408F1000130F000710803196A28F00DC0
:1000CE007010FF3E6428700886047B283408F10007
:1000DE000130F000710803197828F00D7010FF3E02
:1000EE007228F00970088605F7283508013A031DB5
:1000FE008E283408F1000130F000710803198B28A6
:10010E00F00D7010FF3E8528700887049C28340877
:10011E00F1000130F000710803199928F00D7010EC
:10012E00FF3E9328F00970088705F7283508013A35
:10013E00031DAF283408F1000130F00071080319D7
:10014E00AC28F00D7010FF3EA62870088804BD285C
:10015E003408F1000130F00071080319BA28F00DCF
:10016E007010FF3EB428F00970088805F72835088E
:10017E00013A031DD0283408F1000130F000710857
:10018E000319CD28F00D7010FF3EC72870088904A2
:10019E00DE283408F1000130F00071080319DB2865
:1001AE00F00D7010FF3ED528F00970088905F7286C
:1001BE00F728831203133308003A0319382833083B
:1001CE00013A03195B283308023A03197C283308D5
:1001DE00033A03199D283308043A0319BE28DF2871
:0201EE00080007
:1001F00083120313B50143293408F0000508B50044
:10020000700803190729B50CB513FF3E0129013009
:10021000B50558293408F0000608B5007008031920
:100220001529B50CB513FF3E0F290130B505582926
:100230003408F0000708B500700803192329B50C2D
:10024000B513FF3E1D290130B50558293408F000CB
:100250000808B500700803193129B50CB513FF3E25
:100260002B290130B50558293408F0000908B500DC
:10027000700803193F29B50CB513FF3E3929013029
:10028000B505582958293308003A0319FC283308C2
:10029000013A03190A293308023A031918293308C5
:1002A000033A031926293308043A03193429422949
:0602B0003508F000080013
:0802B60083120313810108000B
:1002BE001B2A831203133008003A031D76292F08D8
:1002CE00F1000130F000710803197129F00D701062
:1002DE00FF3E6B29F0097008831685058529831268
:1002EE002F08F1000130F000710803198229F00D7A
:1002FE007010FF3E7C29700883168504322A831203
:10030E003008003A031D9B292F08F1000130F00040
:10031E00710803199629F00D7010FF3E9029F0090F
:10032E00700883168605AA2983122F08F100013062
:10033E00F00071080319A729F00D7010FF3EA129D6
:10034E00700883168604322A83123008003A031D81
:10035E00C0292F08F1000130F00071080319BB29E4
:10036E00F00D7010FF3EB529F00970088316870551
:10037E00CF2983122F08F1000130F0007108031904
:10038E00CC29F00D7010FF3EC62970088316870425
:10039E00322A83123008003A031DE5292F08F10096
:1003AE000130F00071080319E029F00D7010FF3EC6
:1003BE00DA29F009700883168805F42983122F08AC
:1003CE00F1000130F00071080319F129F00D7010E1
:1003DE00FF3EEB29700883168804322A83123008F8
:1003EE00003A031D0A2A2F08F1000130F0007108AF
:1003FE000319052AF00D7010FF3EFF29F009700851
:10040E0083168905192A83122F08F1000130F00096
:10041E0071080319162AF00D7010FF3E102A70088D
:10042E0083168904322A322A831203132E08003AC5
:10043E00031960292E08013A031986292E08023A5B
:10044E000319AB292E08033A0319D0292E08043AB2
:08045E000319F5291A2A080010
:10046600831203133108B3003208B400F820700871
:10047600013A031D452A3108B3003208B400B5011C
:1004860037204C2A3108B3003208B4000130B500D9
:040496003720080003
:0A049A0083120313310881000800EB
:0E04A4008312031328088A002708820008002C
:0604B2008B168B170800F9
:1004B8001E308312031325020318682A5B21250ABC
:1004C800F0007008A500892A25081E3A031D742A21
:1004D8007D30B1004D22250AF0007008A500892A58
:1004E800A5010130B1000130B200332202302602EA
:1004F8000318832A260AF0007008A600892AA60194
:0C0508000130B1000230B20033220800C4
:0E0514008312031328088A00270882000800BB
:100522000730831603138104F7308105DF3081051C
:0A053200FB308B05831281010800E5
:10053C00831203132B08A2002C08A3002D08A4007F
:04054C002E0808006D
:10055000831203132B08AE002C08AF00B0015F21FB
:02056000080091
:1005620052228A110A128000840AA70A0319A80AD1
:08057200F003031DB12A08008B
:10057A00E222013083120313AB000130AC00A8223F
:10058A00013083120313AB000230AC00A82291227F
:10059A0059225C30AB000230AC000030AD000030B4
:0605AA009E22D62AD72A8A
:1005C40022308400053083120313F000DD30A700CD
:0805D4000230A800B12208006A
:0605BA000034003400349F
:0205C000003405
:0205C200003403
:02400E004A2F37
:00000001FF
