:020000002528B1
:1000060083120313F101F20113307202031D0D284E
:100016008830710203181328F10A0319F20A072817
:020026000800D0
:1000280083120313F101F20127307202031D1E2807
:100038001030710203182428F10A0319F20A18284B
:020048000800AE
:10004A00033083160313860087018312870106088B
:10005A00F100711839280608F100F10CF113711832
:10006A0039280330870050280608F1007118432800
:10007A000330870003208701032050280608F10077
:10008A00F10CF11371184F280330870014208701EF
:0A009A001420502887012C2851285B
:02400E004A2F37
:00000001FF
