:020000007C285A
:10000800FF00030E8301A6000A08A7008A017008F2
:10001800A0008B1C30282108F1002208F2002308D8
:10002800F3002408F4000030F0007406031D2628AD
:1000380070087306031D262870087206031D2628FB
:100048007108003A03192F282108A4002208A500E6
:1000580070208A110A128B10831203132008F000F3
:0E00680027088A00260E8300FF0E7F0E090077
:0E0076008312031325088A0024088200080064
:080084008316031306140800A3
:0A008C008316031306148B100800FE
:10009600831203132808013A031D542883160117F7
:0800A60056288316011308001F
:1000AE00831203132808A1002908A2002A08A3001E
:0400BE002B08080003
:0600C2008B170B1608006D
:1000C8003B208A110A128000840AA40A0319A50A8F
:0800D800F003031D6428080079
:0E00E0008312031325088A00240882000800FA
:0A00EE000130831203138806080096
:1000F8009E2083160313081083120810A8014220BB
:10010800462001308312A8004B2077308312A800C4
:100118000030A9000030AA00003057206120932841
:02012800942819
:10013C0021308400033083120313F0009A30A400A2
:08014C000030A500642008004A
:0601340000340034003429
:02400E004A2F37
:00000001FF
