:020000000328D3
:10000600FF30831603138600880183128801061CBD
:100016002828033088000330FB000830FC007730C6
:10002600FD00FD0B1428FC0B1428FB0B142888017B
:100036000330FB000830FC007730FD00FD0B212863
:10004600FC0B2128FB0B21284B28861C4A28033051
:1000560088000630FB001330FC00AD30FD00FD0BC0
:100066003228FC0B3228FB0B3228000000008801E6
:100076000630FB001330FC00AD30FD00FD0B4128BF
:10008600FC0B4128FB0B4128000000004B2888018F
:040096000A284C28C0
:02400E004A2F37
:00000001FF
