:02000000052ACF
:10000800FF00030E8301AC000A08AD008A017008E6
:10001800A1007108A0008B1C32282208F1002308D7
:10002800F2002408F3002508F4000030F0007406FC
:10003800031D282870087306031D282870087206F7
:10004800031D28287108003A031931282208AA003C
:100058002308AB00AD208A110A128B100B1D36281D
:10006800C3210B11831203132108F0002008F100AB
:0E0078002D088A002C0E8300FF0E7F0E09005B
:100086008E28831203133708F1000130F00071083F
:1000960003195128F00D7010FF3E4B2883120313ED
:1000A60070088506A4283708F1000130F0007108B1
:1000B60003196128F00D7010FF3E5B287008860654
:1000C600A4283708F1000130F000710803196F28E1
:1000D600F00D7010FF3E692870088706A4283708BF
:1000E600F1000130F000710803197D28F00D701041
:1000F600FF3E772870088806A4283708F1000130EB
:10010600F000710803198B28F00D7010FF3E85284A
:1001160070088906A428831203133608003A0319C7
:1001260044283608013A031956283608023A0319B4
:1001360064283608033A031972283608043A031964
:040146008028080005
:10014A00831203133408B6003508B70043200800A9
:0E015A00831203132B088A002A088200080073
:0E016800831203132B088A002A088200080065
:100176008A29831203133308003A031DD228320852
:10018600F1000130F00071080319CD28F00D701050
:10019600FF3EC728F009700883168505E5288312F7
:1001A6003308013A031DE5283208F1000130F0005A
:1001B60071080319E228F00D7010FF3EDC28700864
:1001C60083168504A02983123308003A031DFB28F1
:1001D6003208F1000130F00071080319F628F00D1D
:1001E6007010FF3EF028F0097008831686050E2968
:1001F60083123308013A031D0E293208F10001303B
:10020600F000710803190B29F00D7010FF3E052947
:10021600700883168604A02983123308003A031D4A
:1002260024293208F1000130F000710803191F2952
:10023600F00D7010FF3E1929F00970088316870526
:10024600372983123308013A031D37293208F10092
:100256000130F000710803193429F00D7010FF3ECB
:100266002E29700883168704A02983123308003AC2
:10027600031D4D293208F1000130F0007108031901
:100286004829F00D7010FF3E4229F00970088316C8
:100296008805602983123308013A031D6029320854
:1002A600F1000130F000710803195D29F00D70109E
:1002B600FF3E5729700883168804A0298312330845
:1002C600003A031D76293208F1000130F00071086A
:1002D60003197129F00D7010FF3E6B29F0097008A3
:1002E60083168905892983123308013A031D892952
:1002F6003208F1000130F000710803198629F00D6B
:100306007010FF3E8029700883168904A029831285
:1003160003133108003A0319BC283108013A0319BE
:10032600E6283108023A03190F293108033A03195E
:0C03360038293108043A03196129080035
:1003420083120313A50AA60A0A302602031CAE2949
:100352000230B400B501A520A60114302502031C09
:10036200B8290230B4000130B500A520A50108006B
:1003720083160313811281110115811401148B1646
:040382008B170800CD
:10038600831203132708F1002808F2002908F30056
:100396002A08F4000030F0007406031DDC297008FA
:1003A6007306031DDC2970087206031DDC2971081B
:1003B600003A0319E5292708AA002808AB00AD2052
:0603C6008A110A12080072
:1003CC00831203132E08A7002F08A8003008A900D9
:0403DC0031080800DC
:1003E000831203132E08B1002F08B200B301BB2003
:0203F000080003
:1003F200B4208A110A128000840AAA0A0319AB0ADD
:08040200F003031DF9290800B5
:10040A002E22023083120313AE00AF01F021023014
:10041A0083120313AE000130AF00F021A130831222
:10042A000313AE000130AF000030B0000030E62107
:06043A00B9211E2A1F2A51
:10045C0022308400083083120313F0002530AA00E8
:08046C000230AB00F921080089
:06044A0000340034003410
:02045000003476
:02045200003474
:0604540000340034003406
:02400E004A2F37
:00000001FF
