:02000000BB2A19
:10000600C730831203139F053008F000F00D7010FF
:10001600F00D7010F00D701070089F042130FD0077
:10002600FD0B13281F151F1D192816281E08F3007F
:10003600F4017308F100F00183161E08F004003085
:04004600F1040800B9
:10004A00831203132230FC00F801F901FA01FB01C3
:10005A00FC0303195B280310FB0CFA0CF90CF80CCF
:10006A00F30CF20CF10CF00C031C2D28FC03031901
:10007A004D287408F80775080318750FF9077608EC
:10008A000318760FFA0777080318770FFB0731284A
:10009A007408F80775080318750FF9077608031826
:0E00AA00760FFA0777080318770FFB07080098
:1000B80083120313FB01FA01F901F801A001730D82
:1000C800F80D7408F8027508031C750FF902760814
:1000D800031C760FFA027708031C770FFB02000156
:1000E800031C0130A002F30D0730FC00730DF80D5E
:1000F800F90DFA0DFB0DA00D7408731C9528F80274
:100108007508031C750FF9027608031C760FFA02AE
:100118007708031C770FFB020001031C0130A002C3
:10012800A628F80775080318750FF9077608031845
:10013800760FFA0777080318770FFB0700010318F3
:100148000130A007F30DFC0B7A28720DF80DF90D9C
:10015800FA0DFB0DA00D7408731CC428F80275086D
:10016800031C750FF9027608031C760FFA0277084C
:10017800031C770FFB020001031C0130A002D528E5
:10018800F80775080318750FF90776080318760F2E
:10019800FA0777080318770FFB07000103180130E7
:1001A800A007F20D0730FC00720DF80DF90DFA0DDD
:1001B800FB0DA00D7408721CF328F8027508031CC7
:1001C800750FF9027608031C760FFA027708031CEC
:1001D800770FFB020001031C0130A0020429F80775
:1001E80075080318750FF90776080318760FFA07CC
:1001F80077080318770FFB07000103180130A007E1
:10020800F20DFC0BD828710DF80DF90DFA0DFB0D48
:10021800A00D7408721C2229F8027508031C750FBA
:10022800F9027608031C760FFA027708031C770F89
:10023800FB020001031C0130A0023329F8077508EE
:100248000318750FF90776080318760FFA07770869
:100258000318770FFB07000103180130A007F10D01
:100268000730FC00710DF80DF90DFA0DFB0DA00D0E
:100278007408711C5129F8027508031C750FF902DE
:100288007608031C760FFA027708031C770FFB0227
:100298000001031C0130A0026229F8077508031841
:1002A800750FF90776080318760FFA077708031809
:1002B800770FFB07000103180130A007F10DFC0BB5
:1002C8003629700DF80DF90DFA0DFB0DA00D740807
:1002D800711C8029F8027508031C750FF90276084D
:1002E800031C760FFA027708031C770FFB02000144
:1002F800031C0130A0029129F80775080318750F2F
:10030800F90776080318760FFA0777080318770FA6
:10031800FB07000103180130A007F00D0730FC00AF
:10032800700DF80DF90DFA0DFB0DA00D7408701C79
:10033800AF29F8027508031C750FF9027608031C2B
:10034800760FFA027708031C770FFB020001031CE3
:100358000130A002C029F80775080318750FF907BE
:1003680076080318760FFA0777080318770FFB0744
:10037800000103180130A007F00DFC0B9429701838
:10038800D3297408F80775080318750FF907760854
:100398000318760FFA0777080318770FFB0708008A
:1003A80083120313F801F9011030FC00710DF80DE8
:1003B800F90D7408F8027508031C750FF902031883
:1003C800EC297408F80775080318750FF907031066
:0A03D800F00DF10DFC0BDA2908000E
:0E03E2008312031322088A00210882000800FB
:1003F000831603131808F100F10CF1137118012A88
:0A040000F82983122F089900080064
:10040A00831203132F08B00003200030F200F30018
:10041A008830F4001330F5000030F6000030F700A1
:10042A002520FF30F4000330F5000030F6000030DC
:06043A00F7005C20080041
:10044000831203132508A1002608A200F1218A11B6
:100450000A12F1007108003A03193B2A2508A1008D
:100460002608A200F1218A110A12AF00F821A50A7C
:080470000319A60A202A080066
:1004780083120313AD0100302606031D452A003000
:100488002506031D4B2A3030AF00F821842A00309E
:100498002606031D512A003025060319762A2D0841
:1004A800273EAE000A30F400F5012508F0002608C2
:1004B800F100D4217808F0007908F1003030F00715
:1004C8002E08840070088000AD0A0A30F400F50197
:1004D8002508F0002608F100D4217008A50071084D
:1004E800A6004B2A2D08F100AD037108003C031843
:1004F800842A2D08273E84000008AF00F821762AB8
:020508000800E9
:10050A00F1218A110A128000840AA10A0319A20A97
:08051A00F003031D852A08000F
:10052200831203132508AF0005220A30F400F501F7
:04053200D4210800C8
:100536008E30831603139F000514813083129F00AB
:100546000630FC003030FD00FD0BA72AFC0BA72A65
:040556000000080099
:10055A00BF30831603138705871720309800903021
:0C056A00831298000C30831699000800E2
:100576009B22AD228312A50191227008A300710867
:10058600A400E330A5000230A60020222308A5001F
:100596002408A6003C22EB30A5000230A60020224B
:1005A6000B30FB002630FC005D30FD00FD0BD92A28
:1005B600FC0BD92AFB0BD92A00000000BD2AE22A2F
:1005C600543465346D34703420343D342034003472
:0A05D600203443340D340A3400349D
:02400E004A2F37
:00000001FF
