:02000000C32A11
:10000800FF00030E8301A6000A08A7008A017008F2
:10001800A1007108A0007122831203132108F000C7
:100028002008F10027088A00260E8300FF0E7F0EA5
:020038000900BD
:0A003A00013083120313A200080036
:0E0044008312031329088A002808820008008E
:10005200E528831203132F08003A031D40282E08B7
:10006200F1000130F000710803193B28F00D701007
:10007200FF3E3528F0097008831685054F28831244
:100082002E08F1000130F000710803194C28F00D20
:100092007010FF3E4628700883168504FC288312E0
:1000A2002F08003A031D65282E08F1000130F000E8
:1000B200710803196028F00D7010FF3E5A28F009EC
:1000C200700883168605742883122E08F100013009
:1000D200F000710803197128F00D7010FF3E6B28B3
:1000E200700883168604FC2883122F08003A031D29
:1000F2008A282E08F1000130F000710803198528C2
:10010200F00D7010FF3E7F28F009700883168705F6
:10011200992883122E08F1000130F00071080319AA
:100122009628F00D7010FF3E902870088316870401
:10013200FC2883122F08003A031DAF282E08F10075
:100142000130F00071080319AA28F00D7010FF3E6B
:10015200A428F009700883168805BE2883122E0889
:10016200F1000130F00071080319BB28F00D701086
:10017200FF3EB528700883168804FC2883122F08D6
:10018200003A031DD4282E08F1000130F000710856
:100192000319CF28F00D7010FF3EC928F00970082E
:1001A20083168905E32883122E08F1000130F0003E
:1001B20071080319E028F00D7010FF3EDA2870086C
:1001C20083168904FC28FC28831203132D08003AA5
:1001D20003192A282D08013A031950282D08023A3A
:1001E200031975282D08033A03199A282D08043A91
:0801F2000319BF28E4280800EE
:1001FA00A629831203132F08013A031D12292E0878
:10020A00F1000130F000710803190F29F00D701088
:10021A00FF3E09297008850420292E08F1000130C3
:10022A00F000710803191D29F00D7010FF3E1729FF
:10023A00F00970088505BD292F08013A031D3329E5
:10024A002E08F1000130F000710803193029F00D71
:10025A007010FF3E2A297008860441292E08F100F1
:10026A000130F000710803193E29F00D7010FF3EAD
:10027A003829F00970088605BD292F08013A031D9F
:10028A0054292E08F1000130F00071080319512990
:10029A00F00D7010FF3E4B297008870462292E0862
:1002AA00F1000130F000710803195F29F00D701098
:1002BA00FF3E5929F00970088705BD292F08013A20
:1002CA00031D75292E08F1000130F0007108031989
:1002DA007229F00D7010FF3E6C297008880483297A
:1002EA002E08F1000130F000710803198029F00D81
:1002FA007010FF3E7A29F00970088805BD292F0879
:10030A00013A031D96292E08F1000130F000710808
:10031A0003199329F00D7010FF3E8D297008890486
:10032A00A4292E08F1000130F00071080319A1294F
:10033A00F00D7010FF3E9B29F00970088905BD2950
:10034A00BD29831203132D08003A0319FE282D082C
:10035A00013A031921292D08023A031942292D08C5
:10036A00033A031963292D08043A03198429A52994
:02037A00080079
:0E037C008312031329088A0028088200080053
:10038A0083120313AF01102A2E08F0000508AF00EC
:10039A0070080319D429AF0CAF13FF3ECE290130E0
:1003AA00AF05252A2E08F0000608AF0070080319C9
:1003BA00E229AF0CAF13FF3EDC290130AF05252A35
:1003CA002E08F0000708AF0070080319F029AF0CD7
:1003DA00AF13FF3EEA290130AF05252A2E08F000A7
:1003EA000808AF0070080319FE29AF0CAF13FF3ECF
:1003FA00F8290130AF05252A2E08F0000908AF00B8
:10040A00700803190C2AAF0CAF13FF3E062A0130FD
:10041A00AF05252A252A2D08003A0319C9292D08CE
:10042A00013A0319D7292D08023A0319E5292D089B
:10043A00033A0319F3292D08043A0319012A0F2A4A
:06044A002F08F00008007D
:10045000831203132D08013A031D312A8316011755
:08046000332A83160113080082
:10046800013083120313AD00AE010130AF00292023
:100478008B108316031381138312AD012822080001
:10048800831203132A08AD002B08AE00AF01292000
:0204980008005A
:08049A008B100B168B170800F4
:1004A200831203132A08AD002B08AE000130AF00FF
:0404B20029200800F5
:1004B600BE218A110A128000840AA80A0319A90A11
:0804C600F003031D5B2A08008E
:1004CE00831203132A08A3002B08A4002C08A500EE
:0404DE002D080800DD
:1004E2000B0883120313F000F00CF01301307005B7
:1004F200F1007108013A031D9F2A8B102308F100B5
:100502002408F2002508F3002608F4000030F00069
:100512007406031D962A70087306031D962A700836
:100522007206031D962A7108003A03199F2A2308AE
:0E053200A8002408A90022208A110A1208003D
:10054000831203132A08AD002B08AE00AF01FD2073
:020550000800A1
:10055200831203132A08AD002B08AE00C5217008D0
:10056200013A031DBB2A2A08AD002B08AE00AF01D9
:10057200FD20C22A2A08AD002B08AE000130AF00D0
:04058200FD20080050
:10058600F622033083120313AA00AB014422033080
:1005960083120313AA00AB01A0220130AA00AB010B
:1005A600512234228312AD0128221D308312AA0063
:1005B6000030AB000030AC00003067224D2222082C
:1005C6000319EA2AA2010330AA00AB01A922E22AF2
:0205D600EB2A0E
:1005EC0022308400043083120313F000F130A80091
:0805FC000230A9005B22080097
:0205E2000034E3
:0605E40000340034003475
:02400E004A2F37
:00000001FF
