:020000003C2A98
:10000600BF28831203132608003A031D1A28250861
:10001600F1000130F000710803191528F00D701079
:10002600FF3E0F28F00970088316850529288312DC
:100036002508F1000130F000710803192628F00D9B
:100046007010FF3E2028700883168504D628831278
:100056002608003A031D3F282508F1000130F0006C
:10006600710803193A28F00D7010FF3E3428F00984
:100076007008831686054E2883122508F100013084
:10008600F000710803194B28F00D7010FF3E45284B
:10009600700883168604D62883122608003A031DA4
:1000A60064282508F1000130F000710803195F2863
:1000B600F00D7010FF3E5928F00970088316870569
:1000C600732883122508F1000130F0007108031926
:1000D6007028F00D7010FF3E6A287008831687049A
:1000E600D62883122608003A031D89282508F10020
:1000F6000130F000710803198428F00D7010FF3EDE
:100106007E28F0097008831688059828831225082A
:10011600F1000130F000710803199528F00D7010F8
:10012600FF3E8F28700883168804D6288312260877
:10013600003A031DAE282508F1000130F0007108D1
:100146000319A928F00D7010FF3EA328F0097008C6
:1001560083168905BD2883122508F1000130F000B9
:1001660071080319BA28F00D7010FF3EB428700804
:1001760083168904D628D628831203132408003A46
:10018600031904282408013A03192A282408023AE4
:1001960003194F282408033A031974282408043A3B
:0801A60003199928BE28080086
:0E01AE008312031321088A0020088200080033
:1001BC008729831203132608013A031DF328250807
:1001CC00F1000130F00071080319F028F00D7010E7
:1001DC00FF3EEA287008850401292508F10001304A
:1001EC00F00071080319FE28F00D7010FF3EF8287E
:1001FC00F009700885059E292608013A031D14296B
:10020C002508F1000130F000710803191129F00DD7
:10021C007010FF3E0B297008860422292508F10076
:10022C000130F000710803191F29F00D7010FF3E0A
:10023C001929F009700886059E292608013A031D24
:10024C0035292508F1000130F00071080319322915
:10025C00F00D7010FF3E2C297008870443292508E7
:10026C00F1000130F000710803194029F00D7010F5
:10027C00FF3E3A29F009700887059E292608013AA5
:10028C00031D56292508F1000130F00071080319EF
:10029C005329F00D7010FF3E4D2970088804642915
:1002AC002508F1000130F000710803196129F00DE7
:1002BC007010FF3E5B29F009700888059E292608FE
:1002CC00013A031D77292508F1000130F00071086F
:1002DC0003197429F00D7010FF3E6E297008890403
:1002EC0085292508F1000130F000710803198229D5
:1002FC00F00D7010FF3E7C29F009700889059E29CD
:10030C009E29831203132408003A0319DF282408BA
:10031C00013A031902292408023A03192329240853
:10032C00033A031944292408043A03196529862938
:02033C000800B7
:10033E0083120313A601EA292508F0000508A6007A
:10034E0070080319AE29A60CA613FF3EA82901308A
:10035E00A605FF292508F0000608A6007008031957
:10036E00BC29A60CA613FF3EB6290130A605FF290F
:10037E002508F0000708A60070080319CA29A60C64
:10038E00A613FF3EC4290130A605FF292508F0005B
:10039E000808A60070080319D829A60CA613FF3E5C
:1003AE00D2290130A605FF292508F0000908A6006C
:1003BE0070080319E629A60CA613FF3EE0290130AA
:1003CE00A605FF29FF292408003A0319A3292408AA
:1003DE00013A0319B1292408023A0319BF29240846
:1003EE00033A0319CD292408043A0319DB29E92914
:0603FE002608F0000800D3
:10040400831203132208A4002308A5009F210800D7
:10041400D7208A110A128000840AA00A0319A10AAB
:08042400F003031D0A2A080081
:10042C00831203132208A4002308A5000130A600A0
:04043C000320080091
:10044000831203132208A4002308A500A601DE20BE
:020450000800A2
:10045200831203132208A4002308A5000130A6007A
:04046200DE20080090
:10046600831203132208A4002308A500A601032073
:0204760008007C
:10047800033083120313A200A30133220330831233
:100488000313A2000130A3003322013083120313A7
:10049800A2000130A3001622013083120313A20028
:1004A8000230A3001622013083120313A200013088
:1004B800A30002227008003A031D8D2A0330A2000F
:1004C800A30129220330A2000130A300292203300E
:1004D800FB000830FC007730FD00FD0B712AFC0B97
:1004E800712AFB0B712A0330A200A30120220330DA
:1004F800A2000130A30020220330FB000830FC00DA
:100508007730FD00FD0B862AFC0B862AFB0B862A1A
:10051800CE2A0130A2000230A30002227008003A5D
:10052800031DC52A0330A200A30129220330A2001B
:100538000130A30029220630FB001330FC00AD3047
:10054800FD00FD0BA52AFC0BA52AFB0BA52A000024
:1005580000000330A200A30120220330A2000130D2
:10056800A30020220630FB001330FC00AD30FD0054
:10057800FD0BBC2AFC0BBC2AFB0BBC2A00000000AC
:10058800CE2A0330A200A30120220330A2000130AA
:08059800A3002022572ACF2AFC
:02400E004A2F37
:00000001FF
