:02000000F42BDF
:10000800FF00030E8301B9000A08BA008A017008CC
:10001800A4007108A3007208A2007308A100740864
:10002800A0000408A5000B08F000F00CF013013044
:100038007005F1007108013A031D23284623053095
:1000480083120313F1000C08F0007108031930281B
:10005800F00CF013FF3E2A2801307005F1007108FA
:10006800013A031D3828A0230B0883120313F0005C
:10007800F00CF013F00CF01301307005F10071086A
:10008800013A031D48287823831203130C08F00053
:10009800F00CF013F00CF013F00CF01301307005B5
:1000A800F1007108013A031D5A28CA238312031369
:1000B8002408F0002308F1002208F2002108F300C8
:1000C8002008F400250884003A088A00390E8300C5
:0600D800FF0E7F0E09007F
:1000DE001829831203134308013A031D842842088A
:1000EE00F1000130F000710803198128F00D701035
:1000FE00FF3E7B287008850492284208F1000130EB
:10010E00F000710803198F28F00D7010FF3E89283A
:10011E00F009700885052F294308013A031DA5280B
:10012E004208F1000130F00071080319A228F00D09
:10013E007010FF3E9C2870088604B3284208F10018
:10014E000130F00071080319B028F00D7010FF3E59
:10015E00AA28F009700886052F294308013A031DC5
:10016E00C6284208F1000130F00071080319C328B7
:10017E00F00D7010FF3EBD2870088704D428420889
:10018E00F1000130F00071080319D128F00D701044
:10019E00FF3ECB28F009700887052F294308013A46
:1001AE00031DE7284208F1000130F0007108031921
:1001BE00E428F00D7010FF3EDE2870088804F52844
:1001CE004208F1000130F00071080319F228F00D19
:1001DE007010FF3EEC28F009700888052F2943089F
:1001EE00013A031D08294208F1000130F0007108A0
:1001FE0003190529F00D7010FF3EFF2870088904C1
:10020E0016294208F1000130F00071080319132974
:10021E00F00D7010FF3E0D29F009700889052F2989
:10022E002F29831203134108003A0319702841083D
:10023E00013A031993284108023A0319B4284108D8
:10024E00033A0319D5284108043A0319F628172949
:02025E00080096
:10026000831203134008003A031D3D293E08C100D4
:100270003F08C200C3016F2048294008013A031D0E
:1002800048293E08C1003F08C2000130C3006F206A
:02029000080064
:100292009529831203133F08F1000130F000710821
:1002A20003195729F00D7010FF3E512983120313D1
:1002B20070088506AC293F08F1000130F000710892
:1002C20003196729F00D7010FF3E61297008860638
:1002D200AC293F08F1000130F000710803197529BB
:1002E200F00D7010FF3E6F2970088706AC293F0899
:1002F200F1000130F000710803198329F00D70102C
:10030200FF3E7D2970088806AC293F08F1000130C4
:10031200F000710803199129F00D7010FF3E8B292E
:1003220070088906AC29AC29831203133E08003AEF
:1003320003194A293E08013A03195C293E08023A88
:1003420003196A293E08033A031978293E08043A38
:08035200031986299429080013
:10035A00831203133E08013A031DB62983160117B7
:10036A00BE2983123E08003A031DBE29BF308316F8
:04037A0081050800F1
:10037E007B2A831203134008003A031DD6293F0837
:10038E00F1000130F00071080319D129F00D701041
:10039E00FF3ECB29F009700883168505E5298312E7
:1003AE003F08F1000130F00071080319E229F00D49
:1003BE007010FF3EDC29700883168504922A831282
:1003CE004008003A031DFB293F08F1000130F00000
:1003DE0071080319F629F00D7010FF3EF029F0098F
:1003EE007008831686050A2A83123F08F100013031
:1003FE00F00071080319072AF00D7010FF3E012A54
:10040E00700883168604922A83124008003A031D50
:10041E00202A3F08F1000130F000710803191B2A51
:10042E00F00D7010FF3E152AF0097008831687052F
:10043E002F2A83123F08F1000130F00071080319D2
:10044E002C2AF00D7010FF3E262A700883168704A2
:10045E00922A83124008003A031D452A3F08F100F4
:10046E000130F00071080319402AF00D7010FF3EA4
:10047E003A2AF009700883168805542A83123F0819
:10048E00F1000130F00071080319512AF00D7010BF
:10049E00FF3E4B2A700883168804922A8312400866
:1004AE00003A031D6A2A3F08F1000130F00071087E
:1004BE000319652AF00D7010FF3E5F2AF0097008CF
:1004CE0083168905792A83123F08F1000130F00066
:1004DE0071080319762AF00D7010FF3E702A70080D
:1004EE0083168904922A922A831203133E08003A35
:1004FE000319C0293E08013A0319E6293E08023ABB
:10050E0003190B2A3E08033A0319302A3E08043A0F
:08051E000319552A7A2A08008E
:0E0526008312031338088A0037088200080089
:10053400831203133B08BE003C08BF00C001BF2167
:10054400831203133B08BE003C08BF003D08C000F3
:04055400302108004A
:10055800013083120313BE00BF010130C000BF2168
:1005680083120313BE01AD21FD308B05EF308B05DF
:02057800080079
:10057A00831203133B08F1003C08F2003D08F30024
:10058A003E08F4000030F0007406031DD62A7008F5
:10059A007306031DD62A70087206031DD62A71082F
:1005AA00003A0319DF2A3B08A6003C08A7003D08C9
:0605BA00A8003E08080045
:0A05C000FD308B050B168B170800A9
:1005CA00831203133B08BE003C08BF004921080000
:0A05DA00013083120313B60008007D
:1005E400831203133208F0003308F1003408F200D8
:1005F4003508F300F00A0319F10A0319F20A031982
:10060400F30A7008B2007108B3007208B4007308EA
:04061400B500080025
:0E0618008312031338088A0037088200080096
:1006260083120313BB010130BC00BD019A22AC2228
:10063600013083120313BE00AD21ED308312031384
:10064600BB000230BC000030BD000030BD22E022FD
:100656003608013A031D342BBB010130BC00E522EC
:06066600B6012B2B080079
:10066C000630831603139F008501860187018801DC
:10067C00890183128501860187018801890108009F
:10068C00FD308B058B10831203132608F10027080D
:10069C00F2002808F3002908F4000030F00074067A
:1006AC00031D622B70087306031D622B7008720603
:1006BC00031D622B7108003A03196B2B2608B70037
:0C06CC002708B8000C238A110A1208004D
:1006D80093228A110A128000840AB70A0319B80AF9
:0806E800F003031D6C2B080058
:1006F0000630831203138100FB308B050B112C088D
:10070000F1002D08F2002E08F3002F08F40000304D
:10071000F0007406031D962B70087306031D962BBC
:1007200070087206031D962B7108003A03199F2B5F
:100730002C08B7002D08B8000C238A110A120800F3
:10074000831203131A08C4002F08F1003008F200C6
:100750003108F3003208F4000030F0007406031D85
:10076000BB2B70087306031DBB2B70087206031D9C
:10077000BB2B7108003A0319C92B310884004408C7
:100780008000840A2F08B7003008B8000C238A11B3
:040790000A12080041
:10079400F730831203138C052908F1002A08F200AC
:1007A4002B08F3002C08F4000030F0007406031D3D
:1007B400E52B70087306031DE52B70087206031DF4
:1007C400E52B7108003A0319F32B2B088400130856
:1007D4008000840A2908B7002A08B8000C238A116B
:0407E4000A120800ED
:0A07E800102436231323F72BF82BFF
:1008200026308400113083120313F000FE30B7002D
:080830000330B8006C2308003E
:0607FC000034003400345B
:0608020000340034003454
:060808000034003400344E
:06080E0000340034003448
:0808140000340034003400340C
:02081C000034A6
:02400E004A2F37
:00000001FF
