:020000005F2A75
:10000800FF00030E8301A8000A08A9008A017008EE
:10001800A1007108A0000B08F000F00CF0130130EB
:100028007005F1007108013A031D3D28FD308B056C
:1000380041222208F1002308F2002408F3002508D1
:10004800F4000030F0007406031D342870087306AD
:10005800031D342870087206031D34287108003AFD
:1000680003193D282208A6002308A7003A228A116E
:100078000A12831203132108F0002008F10029084E
:0C0088008A00280E8300FF0E7F0E090086
:10009400F328831203133408013A031D5F2833083D
:1000A400F1000130F000710803195C28F00D7010A4
:1000B400FF3E5628700885046D283308F10001308E
:1000C400F000710803196A28F00D7010FF3E6428CF
:1000D400F009700885050A293408013A031D8028AF
:1000E4003308F1000130F000710803197D28F00D88
:1000F4007010FF3E7728700886048E283308F100BC
:100104000130F000710803198B28F00D7010FF3EC8
:100114008528F009700886050A293408013A031D68
:10012400A1283308F1000130F000710803199E285A
:10013400F00D7010FF3E982870088704AF2833082C
:10014400F1000130F00071080319AC28F00D7010B3
:10015400FF3EA628F009700887050A293408013AE9
:10016400031DC2283308F1000130F000710803199F
:10017400BF28F00D7010FF3EB92870088804D028FD
:100184003308F1000130F00071080319CD28F00D97
:100194007010FF3EC728F009700888050A29340842
:1001A400013A031DE3283308F1000130F00071081F
:1001B4000319E028F00D7010FF3EDA287008890456
:1001C400F1283308F1000130F00071080319EE281A
:1001D400F00D7010FF3EE828F009700889050A291F
:1001E4000A29831203133208003A03194B283208F0
:1001F400013A03196E283208023A03198F2832088B
:10020400033A0319B0283208043A0319D128F22812
:020214000800E0
:10021600831203132508003A031D14290130A50093
:100226001529A5013008B2003108B3002508B4002D
:040236004A20080052
:0E023A008312031327088A002608820008009A
:10024800E029831203132F08003A031D3B292E08C7
:10025800F1000130F000710803193629F00D701013
:10026800FF3E3029F0097008831685054A29831254
:100278002E08F1000130F000710803194729F00D2C
:100288007010FF3E4129700883168504F7298312F0
:100298002F08003A031D60292E08F1000130F000F4
:1002A800710803195B29F00D7010FF3E5529F009FC
:1002B8007008831686056F2983122E08F100013015
:1002C800F000710803196C29F00D7010FF3E6629C3
:1002D800700883168604F72983122F08003A031D35
:1002E80085292E08F1000130F000710803198029D2
:1002F800F00D7010FF3E7A29F00970088316870503
:10030800942983122E08F1000130F00071080319B6
:100318009129F00D7010FF3E8B2970088316870411
:10032800F72983122F08003A031DAA292E08F10085
:100338000130F00071080319A529F00D7010FF3E77
:100348009F29F009700883168805B92983122E0899
:10035800F1000130F00071080319B629F00D701092
:10036800FF3EB029700883168804F72983122F08E6
:10037800003A031DCF292E08F1000130F000710862
:100388000319CA29F00D7010FF3EC429F00970083E
:1003980083168905DE2983122E08F1000130F0004A
:1003A80071080319DB29F00D7010FF3ED52970087C
:1003B80083168904F729F729831203132D08003AB5
:1003C800031925292D08013A03194B292D08023A4A
:1003D800031970292D08033A031995292D08043AA1
:0803E8000319BA29DF290800FE
:1003F000831203132D08013A031D012A83160117E6
:0A040000042A8316BF3081050800AE
:10040A00831203132A08A2002B08A3002C08A400B5
:04041A002D080800A1
:10041E001D218A110A128000840AA60A0319A70A4E
:08042E00F003031D0F2A080072
:060436000B168B170800F5
:10043C008316031306147F3081058312AD01F82156
:06044C00FD308B050800E5
:10045200013083120313AD002A08AE000130AF0051
:040462002421080049
:0E04660083120313B0010130B1000B21080016
:0E0474008312031327088A002608820008005E
:1004820083120313F101003071020318552AF2019D
:100492000330003C031D4F2A203072020318532AF6
:0A04A200F20A492AF10A442A080070
:1004AC00831203132A08AD002B08AE00AF012421E0
:0204BC00080036
:1004BE00842283120313AA010130AB005622831249
:1004CE000313AA0129221E228312AD01F821333013
:1004DE008312AA000230AB000030AC0000300522BF
:0604EE001B22782A792A86
:1005080022308400043083120313F0007F30A600E9
:080518000230A7000F220800C9
:0604FE000034003400345C
:020504000034C1
:02400E004A2F37
:00000001FF
