:02000000162BBD
:10000800FF00030E8301A6000A08A7008A017008F2
:10001800A1007108A0008B1C32288B102308F10066
:100028002408F2002508F3002608F4000030F00048
:100038007406031D292870087306031D29287008F3
:100048007206031D29287108003A0319322823086B
:10005800A8002408A90023228A110A128312031374
:100068002108F0002008F10027088A00260E8300E6
:06007800FF0E7F0E0900DF
:10007E00710DF80DF90D7408F8027508031C750F53
:10008E00F902F00DF10D0F30FC00710DF80DF90DA8
:10009E007408701C5828F8027508031C750FF902B5
:1000AE005D28F80775080318750FF907F00DF10DA7
:1000BE00FC0B4C28701869287408F807750803188B
:0800CE00750FF907000008009E
:1000D6000330831203132E05A2008E2819309500D3
:1000E600DF309705EF3097059F2832309500DF30D7
:1000F6009705EF3097059F284B309500DF30970521
:10010600EF3097059F2864309500DF309705EF3074
:1001160097059F289F282208003A0319712822086C
:10012600013A031978282208023A03197F2822087F
:0A013600033A031986288D280800FB
:10014000831203137408003A031DAF287508003AA0
:10015000031DAF28FF30F0007F30F1000829831223
:100160000313FD01F901F80171087004031900344B
:1001700071087506FA00FA1BFD09FB01F51FC52879
:10018000F409F509F40A0319F50AF11FCC28F0095E
:10019000F109F00A0319F10A71087504FA00FA1B53
:1001A000E1283F207B18F428FD1F0034F009F109F5
:1001B000F00A0319F10AF809F909F80A0319F90A0A
:1001C0000034F51FF028F11BEC287108F9007008C5
:1001D000F800F101F001D428F101F001F00A003437
:1001E000F109F009FB0AD128F80A0319F90A740881
:1001F0007802031DD42875087902031DD428F9015B
:10020000F801F00A0319F10AF11FD4280000FF34A5
:020210000800E4
:10021200831203132D08013A031D122983160117B5
:0A02220015298316BF30810508007E
:0E022C008312031329088A00280882000800A4
:10023A006330831603139200193083129500DF305E
:10024A009705EF309705FB3083168705FD3083123B
:10025A0092051214121597151715FD309705FE30E1
:04026A0097050800EC
:10026E00F329831203132C08003A031D4E292B0881
:10027E00F1000130F000710803194929F00D7010DA
:10028E00FF3E4329F0097008831685055D29831208
:10029E002B08F1000130F000710803195A29F00DF6
:1002AE007010FF3E54297008831685040A2A8312A3
:1002BE002C08003A031D73292B08F1000130F000C1
:1002CE00710803196E29F00D7010FF3E6829F009B0
:1002DE00700883168605822983122B08F1000130DF
:1002EE00F000710803197F29F00D7010FF3E792977
:1002FE007008831686040A2A83122C08003A031DFE
:10030E0098292B08F1000130F00071080319932988
:10031E00F00D7010FF3E8D29F009700883168705C9
:10032E00A72983122B08F1000130F0007108031980
:10033E00A429F00D7010FF3E9E29700883168704C5
:10034E000A2A83122C08003A031DBD292B08F1003E
:10035E000130F00071080319B829F00D7010FF3E3E
:10036E00B229F009700883168805CC2983122B0850
:10037E00F1000130F00071080319C929F00D701059
:10038E00FF3EC3297008831688040A2A83122C089C
:10039E00003A031DE2292B08F1000130F00071082C
:1003AE000319DD29F00D7010FF3ED729F0097008F2
:1003BE0083168905F12983122B08F1000130F00014
:1003CE0071080319EE29F00D7010FF3EE829700830
:1003DE00831689040A2A0A2A831203132A08003A6A
:1003EE00031938292A08013A03195E292A08023A04
:1003FE00031983292A08033A0319A8292A08043A5B
:08040E000319CD29F2290800B1
:060416000B168B17080015
:10041C00831203132A08A3002B08A4002C08A500A0
:04042C002D0808008F
:100430008316031306147F3081058312AD01092151
:06044000FD308B050800F1
:0E0446008312031329088A0028088200080088
:1004540016218A110A128000840AA80A0319A90A1B
:08046400F003031D2A2A080021
:10046C00831203132208013EF000F1010318F10A74
:10047C000430F400F501A0207808F0007908F100B0
:0C048C007008A2007008AE006B20080091
:10049800831603138501FF308600831285018601C8
:0204A80008004A
:1004AA00FE2A831203132C08013A031D6A2A2B0819
:1004BA00F1000130F00071080319672AF00D70107D
:1004CA00FF3E612A70088504782A2B08F100013062
:1004DA00F00071080319752AF00D7010FF3E6F2A9B
:1004EA00F00970088505152B2C08013A031D8B2A83
:1004FA002B08F1000130F00071080319882AF00D69
:10050A007010FF3E822A70088604992A2B08F1008F
:10051A000130F00071080319962AF00D7010FF3EA1
:10052A00902AF00970088605152B2C08013A031D3C
:10053A00AC2A2B08F1000130F00071080319A92A2E
:10054A00F00D7010FF3EA32A70088704BA2A2B0800
:10055A00F1000130F00071080319B72AF00D70108C
:10056A00FF3EB12AF00970088705152B2C08013ABD
:10057A00031DCD2A2B08F1000130F0007108031980
:10058A00CA2AF00D7010FF3EC42A70088804DB2ABC
:10059A002B08F1000130F00071080319D82AF00D78
:1005AA007010FF3ED22AF00970088805152B2C0816
:1005BA00013A031DEE2A2B08F1000130F000710800
:1005CA000319EB2AF00D7010FF3EE52A7008890422
:1005DA00FC2A2B08F1000130F00071080319F92AEE
:1005EA00F00D7010FF3EF32AF00970088905152BEB
:1005FA00152B831203132A08003A0319562A2A08CC
:10060A00013A0319792A2A08023A03199A2A2A0866
:10061A00033A0319BB2A2A08043A0319DC2AFD2AD9
:02062A000800C6
:10062C003E234C220230AA000330AB00AC01372130
:10063C00023083120313AA000330AB000130AC006C
:10064C0055221D213630AA000230AB000030AC0020
:0C065C0000300E2218220B22322B332B10
:10067C0022308400043083120313F0003930A800B8
:08068C000330A9002A22080036
:02067200003452
:06067400003400340034E4
:02400E004A2F37
:00000001FF
