:020000008A2A4A
:10000600AC28831203132C08013A031D18282B0869
:10001600F1000130F000710803191528F00D701079
:10002600FF3E0F287008850426282B08F1000130B2
:10003600F000710803192328F00D7010FF3E1D28EB
:10004600F00970088505C3282C08013A031D3928D4
:100056002B08F1000130F000710803193628F00D65
:100066007010FF3E30287008860447282B08F100E0
:100076000130F000710803194428F00D7010FF3E9E
:100086003E28F00970088605C3282C08013A031D8E
:100096005A282B08F1000130F0007108031957287F
:1000A600F00D7010FF3E51287008870468282B0851
:1000B600F1000130F000710803196528F00D701089
:1000C600FF3E5F28F00970088705C3282C08013A0F
:1000D600031D7B282B08F1000130F000710803197D
:1000E6007828F00D7010FF3E722870088804892861
:1000F6002B08F1000130F000710803198628F00D75
:100106007010FF3E8028F00970088805C3282C0867
:10011600013A031D9C282B08F1000130F0007108FC
:1001260003199928F00D7010FF3E93287008890472
:10013600AA282B08F1000130F00071080319A7283E
:10014600F00D7010FF3EA128F00970088905C3283C
:10015600C328831203132A08003A031904282A081D
:10016600013A031927282A08023A031948282A08B7
:10017600033A031969282A08043A03198A28AB287E
:0201860008006F
:10018800831203132708AA002808AB000130AC002B
:040198000320080038
:10019C008A29831203132908003A031DE52828082D
:1001AC00F1000130F00071080319E028F00D701017
:1001BC00FF3EDA28F009700883168505F4288312AF
:1001CC002808F1000130F00071080319F128F00D36
:1001DC007010FF3EEB28700883168504A12983124A
:1001EC002908003A031D0A292808F1000130F00003
:1001FC00710803190529F00D7010FF3EFF28F00956
:10020C00700883168605192983122808F10001301D
:10021C00F000710803191629F00D7010FF3E10291B
:10022C00700883168604A12983122908003A031D3D
:10023C002F292808F1000130F000710803192A2930
:10024C00F00D7010FF3E2429F00970088316870505
:10025C003E2983122808F1000130F00071080319BF
:10026C003B29F00D7010FF3E35297008831687046A
:10027C00A12983122908003A031D54292808F100EA
:10028C000130F000710803194F29F00D7010FF3E7A
:10029C004929F009700883168805632983122808F8
:1002AC00F1000130F000710803196029F00D701095
:1002BC00FF3E5A29700883168804A1298312290845
:1002CC00003A031D79292808F1000130F00071086B
:1002DC0003197429F00D7010FF3E6E29F009700897
:1002EC0083168905882983122808F1000130F00053
:1002FC00710803198529F00D7010FF3E7F297008D5
:10030C0083168904A129A129831203132708003A13
:10031C000319CF282708013A0319F5282708023AB0
:10032C0003191A292708033A03193F292708043A05
:08033C00031964298929080056
:10034400831203132708AA002808AB00AC0103207A
:0203540008009F
:10035600831203132408A7002508A800A901CE20AC
:0203660008008D
:10036800013083120313A700A801A2210130A700BE
:080378000130A800A2210800D9
:10038000013083120313A700A801C4200130A70085
:100390000130A800C4200630FB001330FC00AD3053
:1003A000FD00FD0BD129FC0BD129FB0BD12900004D
:1003B00000000130A700A801A2210130A7000130F0
:1003C000A800A2210630FB001330FC00AD30FD0078
:1003D000FD0BE829FC0BE829FB0BE82900000000D5
:0203E000080013
:1003E20083120313A6013C2A2508F0000508A60083
:1003F20070080319002AA60CA613FF3EFA29013041
:10040200A605512A2508F0000608A600700803195F
:100412000E2AA60CA613FF3E082A0130A605512A71
:100422002508F0000708A600700803191C2AA60C6C
:10043200A613FF3E162A0130A605512A2508F00010
:100442000808A600700803192A2AA60CA613FF3E64
:10045200242A0130A605512A2508F0000908A60021
:1004620070080319382AA60CA613FF3E322A01305F
:10047200A605512A512A2408003A0319F52924080D
:10048200013A0319032A2408023A0319112A2408FB
:10049200033A03191F2A2408043A03192D2A3B2A76
:0604A2002608F00008002E
:1004A800013083120313A700A801C4200130A7005C
:1004B8000130A800C4200330FB000830FC0077306E
:1004C800FD00FD0B652AFC0B652AFB0B652A013034
:1004D800A700A801A2210130A7000130A800A2218D
:1004E8000330FB000830FC007730FD00FD0B7A2A52
:0A04F800FC0B7A2AFB0B7A2A08009D
:10050200831603138501FF3086008312850186015D
:020512000800DF
:1005140083160313811381220130A700A801A901C6
:10052400CE20013083120313A7000130A800A901D3
:10053400CE20013083120313A7000230A80001303B
:10054400A900CE20013083120313A7000330A800B2
:100554000130A900CE20013083120313AA00023017
:10056400AB000130AC0003200130AA000330AB0023
:100574000130AC0003200130A400A501AB210130FF
:1005840083120313A4000130A500AB21B421013070
:10059400A4000230A500F1217008A2000130A400DB
:1005A4000330A500F1217008A3002208003A031DBE
:1005B400DD2A5422E42A2308003A031DE32AC02139
:0805C400E42AB421C92AE52A4A
:02400E004A2F37
:00000001FF